{
  "contractName": "CappedAndTimeBoundTokens",
  "abi": [
    {
      "inputs": [],
      "stateMutability": "nonpayable",
      "type": "constructor"
    },
    {
      "anonymous": false,
      "inputs": [
        {
          "indexed": true,
          "internalType": "address",
          "name": "owner",
          "type": "address"
        },
        {
          "indexed": true,
          "internalType": "address",
          "name": "spender",
          "type": "address"
        },
        {
          "indexed": false,
          "internalType": "uint256",
          "name": "value",
          "type": "uint256"
        }
      ],
      "name": "Approval",
      "type": "event"
    },
    {
      "anonymous": false,
      "inputs": [
        {
          "indexed": true,
          "internalType": "address",
          "name": "from",
          "type": "address"
        },
        {
          "indexed": true,
          "internalType": "address",
          "name": "to",
          "type": "address"
        },
        {
          "indexed": false,
          "internalType": "uint256",
          "name": "value",
          "type": "uint256"
        }
      ],
      "name": "Transfer",
      "type": "event"
    },
    {
      "inputs": [
        {
          "internalType": "address",
          "name": "owner",
          "type": "address"
        },
        {
          "internalType": "address",
          "name": "spender",
          "type": "address"
        }
      ],
      "name": "allowance",
      "outputs": [
        {
          "internalType": "uint256",
          "name": "",
          "type": "uint256"
        }
      ],
      "stateMutability": "view",
      "type": "function",
      "constant": true
    },
    {
      "inputs": [
        {
          "internalType": "address",
          "name": "spender",
          "type": "address"
        },
        {
          "internalType": "uint256",
          "name": "amount",
          "type": "uint256"
        }
      ],
      "name": "approve",
      "outputs": [
        {
          "internalType": "bool",
          "name": "",
          "type": "bool"
        }
      ],
      "stateMutability": "nonpayable",
      "type": "function"
    },
    {
      "inputs": [
        {
          "internalType": "address",
          "name": "account",
          "type": "address"
        }
      ],
      "name": "balanceOf",
      "outputs": [
        {
          "internalType": "uint256",
          "name": "",
          "type": "uint256"
        }
      ],
      "stateMutability": "view",
      "type": "function",
      "constant": true
    },
    {
      "inputs": [],
      "name": "tokenCap",
      "outputs": [
        {
          "internalType": "uint256",
          "name": "",
          "type": "uint256"
        }
      ],
      "stateMutability": "view",
      "type": "function",
      "constant": true
    },
    {
      "inputs": [],
      "name": "totalSupply",
      "outputs": [
        {
          "internalType": "uint256",
          "name": "",
          "type": "uint256"
        }
      ],
      "stateMutability": "view",
      "type": "function",
      "constant": true
    },
    {
      "inputs": [
        {
          "internalType": "address",
          "name": "recipient",
          "type": "address"
        },
        {
          "internalType": "uint256",
          "name": "amount",
          "type": "uint256"
        }
      ],
      "name": "transfer",
      "outputs": [
        {
          "internalType": "bool",
          "name": "",
          "type": "bool"
        }
      ],
      "stateMutability": "nonpayable",
      "type": "function"
    },
    {
      "inputs": [
        {
          "internalType": "address",
          "name": "sender",
          "type": "address"
        },
        {
          "internalType": "address",
          "name": "recipient",
          "type": "address"
        },
        {
          "internalType": "uint256",
          "name": "amount",
          "type": "uint256"
        }
      ],
      "name": "transferFrom",
      "outputs": [
        {
          "internalType": "bool",
          "name": "",
          "type": "bool"
        }
      ],
      "stateMutability": "nonpayable",
      "type": "function"
    },
    {
      "inputs": [
        {
          "internalType": "address",
          "name": "account",
          "type": "address"
        },
        {
          "internalType": "uint256",
          "name": "amount",
          "type": "uint256"
        }
      ],
      "name": "mint",
      "outputs": [
        {
          "internalType": "bool",
          "name": "",
          "type": "bool"
        }
      ],
      "stateMutability": "nonpayable",
      "type": "function"
    },
    {
      "inputs": [
        {
          "internalType": "address",
          "name": "account",
          "type": "address"
        },
        {
          "internalType": "uint256",
          "name": "amount",
          "type": "uint256"
        }
      ],
      "name": "mintForSalaries",
      "outputs": [
        {
          "internalType": "bool",
          "name": "",
          "type": "bool"
        }
      ],
      "stateMutability": "nonpayable",
      "type": "function"
    },
    {
      "inputs": [],
      "name": "transferSalaries",
      "outputs": [
        {
          "internalType": "bool",
          "name": "",
          "type": "bool"
        }
      ],
      "stateMutability": "nonpayable",
      "type": "function"
    }
  ],
  "bytecode": "0x60806040523480156200001157600080fd5b506040518060400160405280600f81526020017f456475636174696f6e20546f6b656e0000000000000000000000000000000000815250600090805190602001906200005f929190620001c2565b506040518060400160405280600381526020017f454354000000000000000000000000000000000000000000000000000000000081525060019080519060200190620000ad929190620001c2565b506012600281905550600254600a620000c791906200032a565b620f4240620000d7919062000467565b60038190555033600460006101000a81548173ffffffffffffffffffffffffffffffffffffffff021916908373ffffffffffffffffffffffffffffffffffffffff16021790555060035460056000600460009054906101000a900473ffffffffffffffffffffffffffffffffffffffff1673ffffffffffffffffffffffffffffffffffffffff1673ffffffffffffffffffffffffffffffffffffffff16815260200190815260200160002081905550600254600a6200019791906200032a565b6207a120620001a7919062000467565b600354620001b6919062000272565b60078190555062000573565b828054620001d090620004d2565b90600052602060002090601f016020900481019282620001f4576000855562000240565b82601f106200020f57805160ff191683800117855562000240565b8280016001018555821562000240579182015b828111156200023f57825182559160200191906001019062000222565b5b5090506200024f919062000253565b5090565b5b808211156200026e57600081600090555060010162000254565b5090565b60006200027f82620004c8565b91506200028c83620004c8565b9250827fffffffffffffffffffffffffffffffffffffffffffffffffffffffffffffffff03821115620002c457620002c362000508565b5b828201905092915050565b6000808291508390505b60018511156200032157808604811115620002f957620002f862000508565b5b6001851615620003095780820291505b8081029050620003198562000566565b9450620002d9565b94509492505050565b60006200033782620004c8565b91506200034483620004c8565b9250620003737fffffffffffffffffffffffffffffffffffffffffffffffffffffffffffffffff84846200037b565b905092915050565b6000826200038d576001905062000460565b816200039d576000905062000460565b8160018114620003b65760028114620003c157620003f7565b600191505062000460565b60ff841115620003d657620003d562000508565b5b8360020a915084821115620003f057620003ef62000508565b5b5062000460565b5060208310610133831016604e8410600b8410161715620004315782820a9050838111156200042b576200042a62000508565b5b62000460565b620004408484846001620002cf565b925090508184048111156200045a576200045962000508565b5b81810290505b9392505050565b60006200047482620004c8565b91506200048183620004c8565b9250817fffffffffffffffffffffffffffffffffffffffffffffffffffffffffffffffff0483118215151615620004bd57620004bc62000508565b5b828202905092915050565b6000819050919050565b60006002820490506001821680620004eb57607f821691505b6020821081141562000502576200050162000537565b5b50919050565b7f4e487b7100000000000000000000000000000000000000000000000000000000600052601160045260246000fd5b7f4e487b7100000000000000000000000000000000000000000000000000000000600052602260045260246000fd5b60008160011c9050919050565b611bd480620005836000396000f3fe608060405234801561001057600080fd5b506004361061009e5760003560e01c80636234e4b0116100665780636234e4b01461016f57806370a082311461019f578063a9059cbb146101cf578063dd54291b146101ff578063dd62ed3e1461021d5761009e565b8063095ea7b3146100a35780630dcf8c3c146100d357806318160ddd146100f157806323b872dd1461010f57806340c10f191461013f575b600080fd5b6100bd60048036038101906100b89190611493565b61024d565b6040516100ca919061185f565b60405180910390f35b6100db6104e3565b6040516100e8919061185f565b60405180910390f35b6100f96106d2565b60405161010691906119fa565b60405180910390f35b61012960048036038101906101249190611444565b6106dc565b604051610136919061185f565b60405180910390f35b61015960048036038101906101549190611493565b610ade565b604051610166919061185f565b60405180910390f35b61018960048036038101906101849190611493565b610d11565b604051610196919061185f565b60405180910390f35b6101b960048036038101906101b491906113df565b610fae565b6040516101c691906119fa565b60405180910390f35b6101e960048036038101906101e49190611493565b610ff7565b6040516101f6919061185f565b60405180910390f35b610207611328565b60405161021491906119fa565b60405180910390f35b61023760048036038101906102329190611408565b61132e565b60405161024491906119fa565b60405180910390f35b60008073ffffffffffffffffffffffffffffffffffffffff168373ffffffffffffffffffffffffffffffffffffffff1614156102be576040517f08c379a00000000000000000000000000000000000000000000000000000000081526004016102b5906118ba565b60405180910390fd5b600073ffffffffffffffffffffffffffffffffffffffff163373ffffffffffffffffffffffffffffffffffffffff16141561032e576040517f08c379a00000000000000000000000000000000000000000000000000000000081526004016103259061191a565b60405180910390fd5b81600560003373ffffffffffffffffffffffffffffffffffffffff1673ffffffffffffffffffffffffffffffffffffffff1681526020019081526020016000205410156103b0576040517f08c379a00000000000000000000000000000000000000000000000000000000081526004016103a79061197a565b60405180910390fd5b600082116103f3576040517f08c379a00000000000000000000000000000000000000000000000000000000081526004016103ea9061187a565b60405180910390fd5b81600660003373ffffffffffffffffffffffffffffffffffffffff1673ffffffffffffffffffffffffffffffffffffffff16815260200190815260200160002060008573ffffffffffffffffffffffffffffffffffffffff1673ffffffffffffffffffffffffffffffffffffffff168152602001908152602001600020819055508273ffffffffffffffffffffffffffffffffffffffff163373ffffffffffffffffffffffffffffffffffffffff167f8c5be1e5ebec7d5bd14f71427d1e84f3dd0314c0f7b2291e5b200ac8c7c3b925846040516104d191906119fa565b60405180910390a36001905092915050565b6000806008546228206f6104f79190611a26565b9050804211801561050a57506000600854115b610549576040517f08c379a00000000000000000000000000000000000000000000000000000000081526004016105409061195a565b60405180910390fd5b60005b6009805490508110156106c957600a600060098381548110610597577f4e487b7100000000000000000000000000000000000000000000000000000000600052603260045260246000fd5b9060005260206000200160009054906101000a900473ffffffffffffffffffffffffffffffffffffffff1673ffffffffffffffffffffffffffffffffffffffff1673ffffffffffffffffffffffffffffffffffffffff16815260200190815260200160002054600560006009848154811061063b577f4e487b7100000000000000000000000000000000000000000000000000000000600052603260045260246000fd5b9060005260206000200160009054906101000a900473ffffffffffffffffffffffffffffffffffffffff1673ffffffffffffffffffffffffffffffffffffffff1673ffffffffffffffffffffffffffffffffffffffff16815260200190815260200160002060008282546106af9190611a26565b9250508190555080806106c190611af8565b91505061054c565b50600191505090565b6000600354905090565b60008073ffffffffffffffffffffffffffffffffffffffff168373ffffffffffffffffffffffffffffffffffffffff16141561074d576040517f08c379a00000000000000000000000000000000000000000000000000000000081526004016107449061193a565b60405180910390fd5b600073ffffffffffffffffffffffffffffffffffffffff163373ffffffffffffffffffffffffffffffffffffffff1614156107bd576040517f08c379a00000000000000000000000000000000000000000000000000000000081526004016107b4906119da565b60405180910390fd5b81600660008673ffffffffffffffffffffffffffffffffffffffff1673ffffffffffffffffffffffffffffffffffffffff16815260200190815260200160002060008573ffffffffffffffffffffffffffffffffffffffff1673ffffffffffffffffffffffffffffffffffffffff16815260200190815260200160002054101561087c576040517f08c379a0000000000000000000000000000000000000000000000000000000008152600401610873906118da565b60405180910390fd5b600082116108bf576040517f08c379a00000000000000000000000000000000000000000000000000000000081526004016108b69061199a565b60405180910390fd5b81600660003373ffffffffffffffffffffffffffffffffffffffff1673ffffffffffffffffffffffffffffffffffffffff16815260200190815260200160002060008673ffffffffffffffffffffffffffffffffffffffff1673ffffffffffffffffffffffffffffffffffffffff168152602001908152602001600020600082825461094b9190611a7c565b9250508190555081600560003373ffffffffffffffffffffffffffffffffffffffff1673ffffffffffffffffffffffffffffffffffffffff1681526020019081526020016000205461099d9190611a7c565b600560003373ffffffffffffffffffffffffffffffffffffffff1673ffffffffffffffffffffffffffffffffffffffff1681526020019081526020016000208190555081600560008573ffffffffffffffffffffffffffffffffffffffff1673ffffffffffffffffffffffffffffffffffffffff16815260200190815260200160002054610a2b9190611a26565b600560008573ffffffffffffffffffffffffffffffffffffffff1673ffffffffffffffffffffffffffffffffffffffff168152602001908152602001600020819055508273ffffffffffffffffffffffffffffffffffffffff163373ffffffffffffffffffffffffffffffffffffffff167fddf252ad1be2c89b69c2b068fc378daa952ba7f163c4a11628f55a4df523b3ef84604051610acb91906119fa565b60405180910390a3600190509392505050565b60003373ffffffffffffffffffffffffffffffffffffffff16600460009054906101000a900473ffffffffffffffffffffffffffffffffffffffff1673ffffffffffffffffffffffffffffffffffffffff1614610b70576040517f08c379a0000000000000000000000000000000000000000000000000000000008152600401610b679061189a565b60405180910390fd5b600073ffffffffffffffffffffffffffffffffffffffff168373ffffffffffffffffffffffffffffffffffffffff161415610be0576040517f08c379a0000000000000000000000000000000000000000000000000000000008152600401610bd7906118fa565b60405180910390fd5b60075482600354610bf19190611a26565b1115610c32576040517f08c379a0000000000000000000000000000000000000000000000000000000008152600401610c29906119ba565b60405180910390fd5b81600560008573ffffffffffffffffffffffffffffffffffffffff1673ffffffffffffffffffffffffffffffffffffffff1681526020019081526020016000206000828254610c819190611a26565b925050819055508160036000828254610c9a9190611a26565b925050819055508273ffffffffffffffffffffffffffffffffffffffff16600073ffffffffffffffffffffffffffffffffffffffff167fddf252ad1be2c89b69c2b068fc378daa952ba7f163c4a11628f55a4df523b3ef84604051610cff91906119fa565b60405180910390a36001905092915050565b60003373ffffffffffffffffffffffffffffffffffffffff16600460009054906101000a900473ffffffffffffffffffffffffffffffffffffffff1673ffffffffffffffffffffffffffffffffffffffff1614610da3576040517f08c379a0000000000000000000000000000000000000000000000000000000008152600401610d9a9061189a565b60405180910390fd5b600073ffffffffffffffffffffffffffffffffffffffff168373ffffffffffffffffffffffffffffffffffffffff161415610e13576040517f08c379a0000000000000000000000000000000000000000000000000000000008152600401610e0a906118fa565b60405180910390fd5b60075482600354610e249190611a26565b1115610e65576040517f08c379a0000000000000000000000000000000000000000000000000000000008152600401610e5c906119ba565b60405180910390fd5b426008819055506009839080600181540180825580915050600190039060005260206000200160009091909190916101000a81548173ffffffffffffffffffffffffffffffffffffffff021916908373ffffffffffffffffffffffffffffffffffffffff16021790555081600a60008573ffffffffffffffffffffffffffffffffffffffff1673ffffffffffffffffffffffffffffffffffffffff1681526020019081526020016000206000828254610f1e9190611a26565b925050819055508160036000828254610f379190611a26565b925050819055508273ffffffffffffffffffffffffffffffffffffffff16600073ffffffffffffffffffffffffffffffffffffffff167fddf252ad1be2c89b69c2b068fc378daa952ba7f163c4a11628f55a4df523b3ef84604051610f9c91906119fa565b60405180910390a36001905092915050565b6000600560008373ffffffffffffffffffffffffffffffffffffffff1673ffffffffffffffffffffffffffffffffffffffff168152602001908152602001600020549050919050565b60008073ffffffffffffffffffffffffffffffffffffffff168373ffffffffffffffffffffffffffffffffffffffff161415611068576040517f08c379a000000000000000000000000000000000000000000000000000000000815260040161105f9061193a565b60405180910390fd5b600073ffffffffffffffffffffffffffffffffffffffff163373ffffffffffffffffffffffffffffffffffffffff1614156110d8576040517f08c379a00000000000000000000000000000000000000000000000000000000081526004016110cf906119da565b60405180910390fd5b81600560003373ffffffffffffffffffffffffffffffffffffffff1673ffffffffffffffffffffffffffffffffffffffff16815260200190815260200160002054101561115a576040517f08c379a0000000000000000000000000000000000000000000000000000000008152600401611151906118da565b60405180910390fd5b6000821161119d576040517f08c379a00000000000000000000000000000000000000000000000000000000081526004016111949061199a565b60405180910390fd5b81600560003373ffffffffffffffffffffffffffffffffffffffff1673ffffffffffffffffffffffffffffffffffffffff168152602001908152602001600020546111e89190611a7c565b600560003373ffffffffffffffffffffffffffffffffffffffff1673ffffffffffffffffffffffffffffffffffffffff1681526020019081526020016000208190555081600560008573ffffffffffffffffffffffffffffffffffffffff1673ffffffffffffffffffffffffffffffffffffffff168152602001908152602001600020546112769190611a26565b600560008573ffffffffffffffffffffffffffffffffffffffff1673ffffffffffffffffffffffffffffffffffffffff168152602001908152602001600020819055508273ffffffffffffffffffffffffffffffffffffffff163373ffffffffffffffffffffffffffffffffffffffff167fddf252ad1be2c89b69c2b068fc378daa952ba7f163c4a11628f55a4df523b3ef8460405161131691906119fa565b60405180910390a36001905092915050565b60075481565b6000600660008473ffffffffffffffffffffffffffffffffffffffff1673ffffffffffffffffffffffffffffffffffffffff16815260200190815260200160002060008373ffffffffffffffffffffffffffffffffffffffff1673ffffffffffffffffffffffffffffffffffffffff16815260200190815260200160002054905092915050565b6000813590506113c481611b70565b92915050565b6000813590506113d981611b87565b92915050565b6000602082840312156113f157600080fd5b60006113ff848285016113b5565b91505092915050565b6000806040838503121561141b57600080fd5b6000611429858286016113b5565b925050602061143a858286016113b5565b9150509250929050565b60008060006060848603121561145957600080fd5b6000611467868287016113b5565b9350506020611478868287016113b5565b9250506040611489868287016113ca565b9150509250925092565b600080604083850312156114a657600080fd5b60006114b4858286016113b5565b92505060206114c5858286016113ca565b9150509250929050565b6114d881611ac2565b82525050565b60006114eb602983611a15565b91507f4552524f523a2061737369676e6d656e742073686f756c64206265206d6f726560008301527f20746861205a65726f00000000000000000000000000000000000000000000006020830152604082019050919050565b6000611551601b83611a15565b91507f4552524f523a20596f752063616e74204d696e7420546f6b656e7300000000006000830152602082019050919050565b6000611591601f83611a15565b91507f4552524f523a617070726f76652066726f6d205a65726f2061646472657373006000830152602082019050919050565b60006115d1602583611a15565b91507f4552524f523a204e6f7420656e6f7567682062616c616e636520746f2054726160008301527f6e736665720000000000000000000000000000000000000000000000000000006020830152604082019050919050565b6000611637601c83611a15565b91507f4552524f523a4d696e74696e20746f207a65726f2041646472657373000000006000830152602082019050919050565b6000611677601e83611a15565b91507f4552524f523a206170707269766520746f205a65726f206164647265737300006000830152602082019050919050565b60006116b7601e83611a15565b91507f4552524f523a2073656e64696e6720746f205a65726f206164647265737300006000830152602082019050919050565b60006116f7602883611a15565b91507f4552524f523a20576169743a205472616e736665722064617465206e6f74207260008301527f65616368656420200000000000000000000000000000000000000000000000006020830152604082019050919050565b600061175d601e83611a15565b91507f4552524f523a20646f6e74206861766520656e6f75676820746f6b656e7300006000830152602082019050919050565b600061179d601a83611a15565b91507f4552524f523a2073656e64696e67207a65726f20616d6f756e740000000000006000830152602082019050919050565b60006117dd601c83611a15565b91507f4552524f523a20526561636865642074686520746f6b656e20636170000000006000830152602082019050919050565b600061181d602083611a15565b91507f4552524f523a2073656e64696e672066726f6d205a65726f20616464726573736000830152602082019050919050565b61185981611aee565b82525050565b600060208201905061187460008301846114cf565b92915050565b60006020820190508181036000830152611893816114de565b9050919050565b600060208201905081810360008301526118b381611544565b9050919050565b600060208201905081810360008301526118d381611584565b9050919050565b600060208201905081810360008301526118f3816115c4565b9050919050565b600060208201905081810360008301526119138161162a565b9050919050565b600060208201905081810360008301526119338161166a565b9050919050565b60006020820190508181036000830152611953816116aa565b9050919050565b60006020820190508181036000830152611973816116ea565b9050919050565b6000602082019050818103600083015261199381611750565b9050919050565b600060208201905081810360008301526119b381611790565b9050919050565b600060208201905081810360008301526119d3816117d0565b9050919050565b600060208201905081810360008301526119f381611810565b9050919050565b6000602082019050611a0f6000830184611850565b92915050565b600082825260208201905092915050565b6000611a3182611aee565b9150611a3c83611aee565b9250827fffffffffffffffffffffffffffffffffffffffffffffffffffffffffffffffff03821115611a7157611a70611b41565b5b828201905092915050565b6000611a8782611aee565b9150611a9283611aee565b925082821015611aa557611aa4611b41565b5b828203905092915050565b6000611abb82611ace565b9050919050565b60008115159050919050565b600073ffffffffffffffffffffffffffffffffffffffff82169050919050565b6000819050919050565b6000611b0382611aee565b91507fffffffffffffffffffffffffffffffffffffffffffffffffffffffffffffffff821415611b3657611b35611b41565b5b600182019050919050565b7f4e487b7100000000000000000000000000000000000000000000000000000000600052601160045260246000fd5b611b7981611ab0565b8114611b8457600080fd5b50565b611b9081611aee565b8114611b9b57600080fd5b5056fea264697066735822122088e0397587b579d75d03cc255e43906ab13b9f9a6c7cfdc878e092169f23c27e64736f6c63430008000033",
  "immutableReferences": {},
  "source": "// SPDX-License-Identifier: MIT\r\npragma solidity ^0.8.0;\r\n\r\ninterface IERC20 {\r\n    \r\n    function totalSupply() external view returns (uint256);\r\n    function balanceOf(address account) external view returns (uint256);\r\n    function transfer(address recipient, uint256 amount) external returns (bool);\r\n    function allowance(address owner, address spender) external view returns (uint256);\r\n    function approve(address spender, uint256 amount) external returns (bool);\r\n    function transferFrom(address sender,address recipient,uint256 amount) external returns (bool);\r\n\r\n    event Transfer(address indexed from, address indexed to, uint256 value);\r\n    event Approval(address indexed owner, address indexed spender, uint256 value);\r\n}\r\n\r\ncontract EducationToken is IERC20{\r\n    string _name;\r\n    string _symbol;\r\n    uint256 _decimals;\r\n    uint256 _totalSupply;\r\n    address _owner;\r\n\r\n    mapping(address => uint) balances;\r\n    mapping(address => mapping(address => uint)) allowances;\r\n    \r\n    constructor(){\r\n        _name =\"Education Token\";\r\n        _symbol = \"ECT\";\r\n        _decimals = 18;\r\n        _totalSupply = 1000000 *10**_decimals;\r\n        _owner = msg.sender;\r\n        balances[_owner] = _totalSupply;\r\n    }\r\n\r\n    function totalSupply() external view override returns (uint256){\r\n        return _totalSupply;       \r\n    }\r\n    \r\n    function balanceOf(address account) external view override returns (uint256){\r\n        return balances[account];\r\n    }\r\n    \r\n    function transfer(address recipient, uint256 amount) external override returns (bool){\r\n        require(recipient !=address(0),\"ERROR: sending to Zero address\");\r\n        require(msg.sender !=address(0),\"ERROR: sending from Zero address\");\r\n        require(balances[msg.sender] >= amount,\"ERROR: Not enough balance to Transfer\");\r\n        require( amount > 0,\"ERROR: sending zero amount\");\r\n        \r\n        balances[msg.sender] = balances[msg.sender] - amount;\r\n        balances[recipient]  = balances[recipient] + amount;\r\n        \r\n        emit Transfer(msg.sender,recipient,amount);\r\n        return true;\r\n    }\r\n\r\n    function allowance(address owner, address spender) external view override returns (uint256){\r\n        return allowances[owner][spender]; \r\n    }\r\n\r\n    function approve(address spender, uint256 amount) external override returns (bool){\r\n        require(spender !=address(0),\"ERROR:approve from Zero address\");\r\n        require(msg.sender !=address(0),\"ERROR: apprive to Zero address\");\r\n        require(balances[msg.sender] >=amount,\"ERROR: dont have enough tokens\");\r\n        require(amount > 0, \"ERROR: assignment should be more tha Zero\");\r\n        \r\n        allowances[msg.sender][spender] = amount;\r\n        \r\n        emit Approval(msg.sender,spender,amount);\r\n        return true;       \r\n    }\r\n    \r\n    function transferFrom(address sender,address recipient,uint256 amount) external override returns (bool){\r\n        \r\n        require(recipient !=address(0),\"ERROR: sending to Zero address\");\r\n        require(msg.sender !=address(0),\"ERROR: sending from Zero address\");\r\n        require(allowances[sender][recipient] >= amount,\"ERROR: Not enough balance to Transfer\");\r\n        require( amount > 0,\"ERROR: sending zero amount\");\r\n        \r\n        allowances[msg.sender][sender] -= amount;\r\n        \r\n        balances[msg.sender] = balances[msg.sender] - amount;\r\n        balances[recipient]  = balances[recipient] + amount;\r\n        \r\n        emit Transfer(msg.sender,recipient,amount); \r\n        return true;\r\n        \r\n    }\r\n}\r\n\r\n// Assignment 3B\r\n// Please complete the ERC20 token with the following extensions;\r\n// 1) - Capped Token: The minting token should not be exceeded from the Capped limit.\r\n// 2) - TimeBound Token: The token will not be transferred until the given time exceed. For example Wages payment will be due after 30 days.\r\n// 3) should be deployed by using truffle or hardhat on any Ethereum test network\r\ncontract CappedAndTimeBoundTokens is EducationToken{\r\n\r\n    uint256 public tokenCap; \r\n    // date token  minted for salary\r\n    uint256 mintedOn;\r\n    \r\n    constructor(){\r\n         tokenCap = _totalSupply + (500000 *10**_decimals);\r\n    }\r\n    \r\n    // modifier will restrict transfer of funds for 30 days from the date of mintTokensForSalary function is called;\r\n    modifier transferAfterMonth(){\r\n        uint256 transferOn = 2629743 +  mintedOn ; // date when token will become tranferable i.e 30 days\r\n        require(block.timestamp > transferOn && mintedOn > 0,\"ERROR: Wait: Transfer date not reached  \");\r\n        _;\r\n    }  \r\n    \r\n    // to hold tokens minted for salary for temporary period\r\n    // once slary transfer  function is called all balances will be transferred to balances mappping  \r\n    address[] tempArrayofAdd;\r\n    mapping(address => uint256) temporaryStay; // it will hold balances for 30 days\r\n    \r\n    // this mint is used for normal minting of tokens except salaries there is no time limit for these transfers\r\n    // in this mint there is no binding of holding tokens for specific date\r\n    function mint(address account, uint256 amount)public returns(bool){\r\n        require(_owner == msg.sender, \"ERROR: You cant Mint Tokens\");\r\n        require(account !=address(0),\"ERROR:Mintin to zero Address\");\r\n        require(_totalSupply + amount <= tokenCap,\"ERROR: Reached the token cap\");\r\n    \r\n        \r\n        balances[account] += amount;\r\n    \r\n        _totalSupply += amount;\r\n\r\n        emit Transfer(address(0), account, amount);      \r\n        return true;  \r\n    }\r\n    \r\n    // this mint is only called for salaries, it will help to hold tokens for 30 days \r\n    function mintForSalaries(address account, uint256 amount)public returns(bool){\r\n        require(_owner == msg.sender, \"ERROR: You cant Mint Tokens\");\r\n        require(account !=address(0),\"ERROR:Mintin to zero Address\");\r\n        require(_totalSupply + amount <= tokenCap,\"ERROR: Reached the token cap\");\r\n        \r\n        mintedOn = block.timestamp;\r\n        \r\n        tempArrayofAdd.push(account);\r\n        temporaryStay[account] += amount;\r\n    \r\n        _totalSupply += amount;\r\n\r\n        emit Transfer(address(0), account, amount);      \r\n        return true;  \r\n    }\r\n\r\n    function transferSalaries()public transferAfterMonth returns(bool){\r\n        for(uint i=0; i <tempArrayofAdd.length; i++){\r\n        balances[tempArrayofAdd[i]] += temporaryStay[tempArrayofAdd[i]];\r\n        }\r\n        return true;\r\n    }\r\n} ",
  "sourcePath": "E:\\Assignment-3B\\contracts\\CappedAndTimeBoundTokens.sol",
  "compiler": {
    "name": "solc",
    "version": "0.8.0+commit.c7dfd78e.Emscripten.clang"
  },
  "schemaVersion": "3.4.3",
  "updatedAt": "2021-08-23T15:14:46.689Z",
  "networkType": "ethereum",
  "devdoc": {
    "kind": "dev",
    "methods": {},
    "version": 1
  },
  "userdoc": {
    "kind": "user",
    "methods": {},
    "version": 1
  }
}